:020000040808EA
:1000000000000808A41E0808000006000A000501F8
:080010000402E80500000000F5
:04001800E8190808D3
:10001C0009480A4908B5884205D0094A824202D0EB
:10002C00121A01F069FC0748074A0021121A01F064
:10003C006EFC064808BD00BF00000020041E080826
:10004C007800002078000020FC050020FC05002032
:10005C0070B501F0ADFA074B074C1E46E41AA40824
:10006C000025A54204D056F8253098470135F8E70D
:10007C0070BD00BFC81D0808F81D080800F022B8A4
:10008C0008B500F039F8BDE8084001F053BA00F0AB
:10009C0051BB00F057BB0078B0FA80F040097047B4
:1000AC0001230370704710B50446006808B100F0D6
:1000BC0049FB204610BD00231A461946406800F043
:1000CC0009BB000008B500F0BDFA00230222054967
:1000DC00054800F09FFABDE80840044A0449054869
:1000EC0000F033BC8C000020FC190808081A080822
:1000FC00B50208082B090808704700002DE9D04309
:10010C001848FFF7D8FF40F2E73600F09BFA4FF49F
:10011C0096740027002000F0D1F980464FF00009BA
:10012C00002000F0CBF9B0EB080061EB09018F4225
:10013C0008BF864205D300F095FA10B900F07AFAA0
:10014C00EEE700F08FFA18B1BDE8D04300F08ABAA0
:10015C0000F0ACF9044B186000F06CFA013CF3D0E1
:10016C00D8E700BF900000205005002008B500F033
:10017C0079FA80F00100C0B208BD0000F8B500F0BB
:10018C0069FA002000F09AF943F6972604460025F8
:10019C000027002000F092F9001B61EB05018F4253
:1001AC0008BF864205D3FFF7E1FF10B900F042FA11
:1001BC00EFE7FFF7DBFF044800231A4619464068B7
:1001CC0000F090FA0120F8BD9000002038B50468CA
:1001DC0005467CB16368013B63605BB923682046CC
:1001EC009B689847A368013BA3601BB92368204612
:1001FC00DB689847284638BD0B46002142F2107246
:10020C00084600F043B9000010B51E4C2046FFF71D
:10021C0052FF00220221606800F04CFA1A4B1B6856
:10022C002BB91A492046FFF7E7FF194926E0012BA5
:10023C0005D116492046FFF7DFFF16491EE0022BB9
:10024C0005D112492046FFF7D7FF134916E0032BBF
:10025C0005D10E492046FFF7CFFF10490EE0042BC5
:10026C0005D10A492046FFF7C7FF0D4906E0052BCB
:10027C0007D106492046FFF7BFFF0A492046FFF782
:10028C00BBFF10BD900000208C000020171A08083E
:10029C00231A08082F1A0808461A08085D1A0808B5
:1002AC00731A0808891A08081FB54B49044600F050
:1002BC0081FF88B1494B002249494A481A6001F034
:1002CC0061FB00F0CFF900287DD0474B474A1B78E3
:1002DC008DF800303C236FE04549204600F06AFF62
:1002EC0088B13E4B012243493E481A6001F04AFB5B
:1002FC0000F0B8F9002866D03B4B3F4A1B788DF8CC
:10030C0000303C2358E03D49204600F053FF88B1B3
:10031C00324B02223A4933481A6001F033FB00F0A9
:10032C00A1F900284FD0304B364A1B788DF800309D
:10033C003C2341E03449204600F03CFF88B1274B78
:10034C000322324927481A6001F01CFB00F08AF99D
:10035C00002838D0244B2E4A1B788DF800303C23D3
:10036C002AE02C49204600F025FF80B11B4B0422CB
:10037C0029491C481A6001F005FB00F073F910B311
:10038C00194B264A1B788DF800303C2314E0244985
:10039C00204600F00FFFE8B1104B0522214911480F
:1003AC001A6001F0EFFA00F05DF960B10E4B1E4AD5
:1003BC001B788DF800303C2302A81C4900F0ECFBA4
:1003CC0003A8FFF703FFFFF7D9FEFFF71DFFFFF7A9
:1003DC0095FE012004B010BD9F1A08088C00002067
:1003EC00A11A0808000000207C000020AB1A0808A5
:1003FC00D51B0808DC1A0808CA1A0808E11A0808EC
:10040C00F51A0808E31A0808FE1A0808121B08084F
:10041C00001B0808191B08081B1B08081F1B0808D1
:10042C00401B0808541B0808421B0808C51A08087A
:10043C000E4B70B501261E7000F048F84FF6FF7396
:10044C000B4C0025022063812560A580A5712581B8
:10045C0000F0ACF807492046074A01F0EDF82946B0
:10046C003046BDE8704000F0A9B800BF7C00002009
:10047C0080000020B30008087800002008B5024B6B
:10048C001B68DB6B019308BD2000060808B5024B06
:10049C001B689B6C019308BD2000060808B5024B35
:1004AC001B685B68019308BD9C01040808B5024BEE
:1004BC001B685B69019308BD9C01040808B5024BDD
:1004CC001B68DB6D019308BD9C01040808B5024B49
:1004DC001B681B68019308BDB001040808B5024BEA
:1004EC001B689B69019308BDC401040808B5024B45
:1004FC001B685B6A019308BDC401040808B5024B74
:10050C001B689B6A019308BDC401040808B5024B23
:10051C001B68DB6A019308BDC401040808B5024BD3
:10052C001B681B6B019308BDC401040808B5024B82
:10053C001B685B6B019308BDC401040808B5024B32
:10054C001B681B6C019308BDC401040808B5024B61
:10055C001B681B68019308BD1C00060808B5024BFC
:10056C001B681B69019308BD1C00060808B5024BEB
:10057C001B685B69019308BD1C00060808B5024B9B
:10058C001B689B69019308BD1C00060808B5024B4B
:10059C001B68DB69019308BD1C00060808B5024BFB
:1005AC001B681B6A019308BD1C00060808B5024BAA
:1005BC001B685B68019308BDA401040808B5024BD5
:1005CC001B68DB6A019308BDA401040808B5024B43
:1005DC001B68DB6C019308BDA401040808B5024B31
:1005EC001B685B6D019308BDA401040808B5034B9F
:1005FC001B68D3F89030019308BD0000A4010408D7
:10060C0008B5034B1B68D3F89C30019308BD000060
:10061C00A401040808B5024B1B681B68019308BDB4
:10062C00CC01040808B5024B1B685B68019308BD3C
:10063C00CC01040808B5024B1B689B68019308BDEC
:10064C00CC01040808B5024B1B68DB68019308BD9C
:10065C00CC01040808B5024B1B681B69019308BD4B
:10066C00CC01040808B5024B1B685B69019308BDFB
:10067C00CC01040808B5024B1B681B6A019308BD2A
:10068C00CC01040808B5024B1B68DB6B019308BD59
:10069C00CC01040808B5024B1B685B68019308BDCC
:1006AC00C801040808B5024B1B689B68019308BD80
:1006BC00C801040808B5024B1B68DB68019308BD30
:1006CC00C801040808B5024B1B681B69019308BDDF
:1006DC00C801040808B5024B1B685B69019308BD8F
:1006EC00C801040808B5024B1B689B69019308BD3F
:1006FC00C801040808B5024B1B68DB69019308BDEF
:10070C00C801040808B5024B1B681B6A019308BD9D
:10071C00C801040808B5024B1B681B6B019308BD8C
:10072C00C801040808B5024B1B685B6B019308BD3C
:10073C00C801040808B5024B1B681B68019308BD6F
:10074C00A001040808B5024B1B685B68019308BD47
:10075C00A001040808B5024B1B689B68019308BDF7
:10076C00A001040808B5024B1B68DB6A019308BDA5
:10077C00A001040808B5024B1B681B6B019308BD54
:10078C00A001040810B5836804460BB900F05BFFA8
:10079C00C3689847A3681BB103222146204698479B
:1007AC002046BDE81040102100F04BBF002211463E
:1007BC004068FFF787BF2DE9FF41002604AC0546D2
:1007CC0010468846174644F8046D01F0FEF8009672
:1007DC0081B2D8F8043022463846FFF74FFE20B1DC
:1007EC003146284600F08CFB03E02146284600F0F9
:1007FC007FFB284604B0BDE8F0810022114640681A
:10080C00FFF780BF002211464068FFF78BBF002224
:10081C004068FFF77FBF002281F001014068FFF7BD
:10082C0069BF00231A4619464068FFF75BBF0022D8
:10083C0011464068FFF736BF002202214068FFF7DF
:10084C0039BF00231A464068FFF724BF38B5084C5F
:10085C0028252A460021204601F059F84FF0FF3395
:10086C006360044B04225A60034A25801A6038BD29
:10087C009800002090000020641B0808704700209E
:10088C00704710B50446102100F0DBFE204610BD69
:10089C0008B508B1FFF7F5FF08BD10B5836804462D
:1008AC0013B1032201469847204610BD0022026076
:1008BC004FF69C72828010B5B1F9044084808A8016
:1008CC0002680C6804600A6010BD10B5044600682C
:1008DC00FFF738FF204610BD38B5C468F4B1237853
:1008EC00022B03D104F10C00FFF7EFFF656835B163
:1008FC002846FFF7D2FF1021284600F0A2FEA5687B
:10090C0035B12846FFF7C9FF1021284600F099FEA3
:10091C002046BDE83840142100F093BE38BD10B518
:10092C0088B00446684600F018FC694604A800F03C
:10093C0036FC04A8A047044604A800F0C7FB684690
:10094C0000F0C4FB204608B010BDF0B507460E46BB
:10095C00154685B0102422460021684600F0D7FFCA
:10096C00002269461046ADF80040029703960195A7
:10097C00FFF758FE05B0F0BD13B5044691E805002D
:10098C0000234B600B602060626001A80193009310
:10099C00FFF71CFC204602B010BD0B68036013B1BE
:1009AC005A6801325A607047F7B50C4606460F4636
:1009BC0054F8043B02AD45F8083D214601A8FFF769
:1009CC00ECFF29463046FFF7D7FF01A8FFF7FEFBE7
:1009DC002046FFF7FBFB3846082100F032FE30467C
:1009EC0003B0F0BD13B50B46044603C88DE80300F5
:1009FC0093E8030084E803009DE8030083E8030008
:100A0C0002B010BD38B500230446036010200D461B
:100A1C00FFF73DFB28B1012343608360024BC560A7
:100A2C0003602060204638BD981B0808826810B50A
:100A3C000AB900F008FEC368BDE81040184708B5B5
:100A4C00006800F11001FFF7F1FF08BD826810B5D6
:100A5C000AB900F0F8FDC368BDE81040184708B5A6
:100A6C00006800F11001FFF7F1FF08BD38B5002355
:100A7C0083608B6804460D462BB102229847EB68C5
:100A8C00E360AB68A360204638BD0000F0B589B0C8
:100A9C0004686846FFF70AFF4FF0020200238DF846
:100AAC000830D4E84F3F002B03D1C4E8412F002974
:100ABC00F7D102D08DF8083063E014F10C0503D0A7
:100ACC0069462846FFF7F2FEBFF35F8F0123637080
:100ADC00BFF35F8F04F10803002053E8006F43E875
:100AEC000002002AF9D1BFF35F8F002E49D0FFF727
:100AFC006DFD20B129463046FFF798FF3AE03146AC
:100B0C0002A8FFF7B3FFE068B4F9105008B100F089
:100B1C0041FF06901020ADF81C50FFF7B8FA0546BF
:100B2C00E8B1002787601820FFF7B1FA044688B1B6
:100B3C000146876002A8FFF755FF049BA268A360DB
:100B4C00059B0492E26806A9E36004F1100005928B
:100B5C00FFF7ACFE0D4B2C60EB600D4BAB6006A8A9
:100B6C00FFF7B3FE02A8FFF798FE002229460948BA
:100B7C00FFF734FD3046FFF790FE1021304600F0B1
:100B8C0060FD6846FFF7A1FE09B0F0BD4B0A0808EE
:100B9C00C10C0808910708082DE9F04F8BB00646E8
:100BAC000F46904699469DF850A0FFF75BFD07ADA8
:100BBC00834630BB4FF62E73059005A92846ADF839
:100BCC001830FFF773FE1420FFF761FA044658B192
:100BDC000223037001234370C0F804B0C0F808B0BE
:100BEC0029460C30FFF762FE3046214640F8044B94
:100BFC00FFF708FF2846FFF768FE05A8FFF765FE1C
:100C0C0052E000240C2314206C60AC600793FFF7B7
:100C1C003EFA014618B1047044704460846004A824
:100C2C000391FFF7EFFE224B08200893FFF72FFAF2
:100C3C00044628B1039B04A940F8043BFFF7ADFE22
:100C4C0000955FFA8AF34A46414638460994FFF705
:100C5C0011FD20B9039B5B7803F0FF0283B1039B6A
:100C6C0004A906A80593FFF798FE05A93046FFF7DF
:100C7C0083FE06A8FFF7AAFA04A8FFF7A7FA13E069
:100C8C004FF69C7305A903A80592ADF81830FFF731
:100C9C00FDFE05A8FFF719FE05A80999FFF784FECC
:100CAC0006A8FFF793FADAE730460BB0BDE8F08FF1
:100CBC00310E0808022AF8B5044606D0032A17D0CC
:100CCC00012A22D10B6803601FE018200E68FFF781
:100CDC00DEF9054650B13146FFF7C8FE3069B6F96A
:100CEC00147008B100F056FE2861AF8225600CE04C
:100CFC00046854B104F11000FFF7E7FD2046FFF73C
:100D0C00CCFD1821204600F09CFC0020F8BD38B525
:100D1C00002383608B6804460D462BB10222984752
:100D2C00EB68E360AB68A360204638BD022A70B55F
:100D3C00044606D0032A11D0012A18D10B6803608F
:100D4C0015E014200E68FFF7A2F9054620B13146D4
:100D5C00FFF7DDFF337C2B74256008E0046834B1A9
:100D6C002046FFF79AFD1421204600F06AFC002073
:100D7C0070BD0000F0B50C46BFF35F8F87B0002349
:100D8C0050E8006F40E80032002AF9D1BFF35F8FC2
:100D9C00002E3FD01846FFF719FC074620B121461C
:100DAC003046FFF753FE2EE0314601A8FFF7AFFFA8
:100DBC00237810208DF81430FFF769F90546D0B16F
:100DCC0087601420FFF763F9044678B18760014609
:100DDC0001A8FFF707FE039BA268A360049B039284
:100DEC00E268E3609DF81430049223740A4B2C6083
:100DFC00EB600A4BAB6001A8FFF74FFD00222946C0
:100E0C000748FFF7EBFB3046FFF747FD1021304654
:100E1C0000F017FC07B0F0BD6B0A0808390D080884
:100E2C009107080830B5044685B00D466846114652
:100E3C00FFF7BAFD7CB124B228460DB100F0AAFD33
:100E4C00029002A96846ADF80C40FFF71FFE02A8FD
:100E5C00FFF73BFD1DE04FF0010200988DF80840B4
:100E6C00D0E84F3FA34203D1C0E8412F0029F7D16E
:100E7C0002D08DF808300CE010F10C014FF001039A
:100E8C0018BF0373BFF35F8F043000F8033CFFF708
:100E9C0071FF01A8FFF79AF905B030BD704710B586
:100EAC000446082100F0CDFB204610BDF8B50F46D6
:100EBC0000F10806051D002416F8011D0A2238460B
:100ECC0000F0D1F8AE42044407D0002CF4D02E210F
:100EDC00384600F0C5F80444EEE72046F8BD0000A3
:100EEC00024A026000224260704700BFB41B08082F
:100EFC00024A02600A684260704700BFB41B0808CF
:100F0C00014A416002607047B41B080810B59DF897
:100F1C00084044EA032343EA024242EA0161416089
:100F2C0010BD000037B5044D05609DF818500095B4
:100F3C00FFF7ECFF03B030BDB41B0808014A024BAD
:100F4C001A607047361C0808C000002000231A469F
:100F5C004068FFF79FBB002202214068FFF7AABB45
:100F6C00002211464068FFF79DBB002211464068E5
:100F7C00FFF7A8BB00231A4619464068FFF7AABB27
:100F8C0000231A4619464068FFF7ACBB002281F0DB
:100F9C0001014068FFF7AEBB00224068FFF7BABB07
:100FAC00002211464068FFF7BDBB00221146406885
:100FBC00FFF7A8BBF0B5174687B0054604A8FFF7A6
:100FCC008FFF002606AC384644F80C6D00F0FDFC93
:100FDC000A4B009681B25B6822463846FFF74EFA00
:100FEC0020B131462846FFF78BFF03E02146284607
:100FFC00FFF77EFF284607B0F0BD00BF9000002031
:10100C00024B034A1A6000225A607047C400002049
:10101C00AC1C0808F8B506460D468F180024BD42D6
:10102C000CD0336815F8011B9B6830469847002894
:10103C0001DB0444F3E7002C08BF04462046F8BD4E
:10104C0070B505460C46084649B100F0BEFC2B684D
:10105C00024621462846BDE87040DB68184770BD43
:10106C0003689B681847012A98BF0A2230B50B46C3
:10107C008BB000218DF824100DF12304B3FBF2F595
:10108C0005FB1233DBB2092B94BF30333733DBB2A1
:10109C00214604F801392B46002DEFD1FFF7D0FF84
:1010AC000BB030BD10B50446FFF7F7FB204610BD62
:1010BC00034800238360034A034900F0BDBA00BF14
:1010CC00CC00002078000020B110080810B50446B0
:1010DC000068FFF737FB204610BD10B504460068CA
:1010EC0008B1FFF72FFB00232360A360636010BDE2
:1010FC0038B504460D4600680131FFF72BFB10B1E3
:10110C0084E82100012038BD10B50368044613B1F2
:10111C0043688B4207D22046FFF7EAFF20B1A36851
:10112C000BB922681370012010BD70B50E46114624
:10113C0004461546FFF7E8FF18B92046FFF7CDFF28
:10114C0009E02A463146A560206800F0D5FB2268EC
:10115C00A3680021D154204670BD38B50023044645
:10116C0003604360836003730D4639B1084600F099
:10117C002CFC294602462046FFF7D7FF204638BDF7
:10118C00884210B50B46044607D0096819B19A6815
:10119C00FFF7CBFF01E0FFF7A0FF204610BD10B515
:1011AC00044600230360436083600373FFF7E8FF8A
:1011BC00204610BD08B582680B4612B919B901203A
:1011CC0008BD11B90368187802E0006800F0D0FB84
:1011DC00B0FA80F0400908BD4FF6FF7310B5084C0B
:1011EC0000202060A080A07120816381FFF7DEF9D0
:1011FC002046BDE81040034A034900F01DBA00BF69
:10120C00DC00002078000020B3000808024B1A68AC
:10121C00024B1A60704700BF10000020E80000204D
:10122C0070474174704708B5007CFFF787F920EAD6
:10123C00E07008BD08B5007CFFF760F920EAE070AB
:10124C0008BD08B5007CFFF769F930EA200028BF1B
:10125C004FF0FF3008BD08B5007CFFF757F930EAB6
:10126C00200028BF4FF0FF3008BD007CFFF75EB9AF
:10127C0010B50446142100F0E4F9204610BD70B5F9
:10128C00457C04460E4625B9007CFFF757F900282B
:10129C0005DD3146207CBDE87040FFF727B92846B4
:1012AC0070BD000010B5044608461146002262606D
:1012BC004FF47A72A260054A207422600122627493
:1012CC001A46FFF70BF9204610BD00BF0C1D08088D
:1012DC0038B50C4D296811F0010411D12846FEF7E0
:1012EC00DAFE68B1084A2146084B0948FFF7DAFFD5
:1012FC002846FEF7D5FE074A0749054800F09CF939
:10130C00034838BD84010020880100200001002022
:10131C00EC000020780000202D1208084174704762
:10132C00704708B50021007CFFF728F930EA20004F
:10133C0028BF4FF0FF3008BD08B50121007CFFF736
:10134C001DF930EA200028BF4FF0FF3008BD08B56A
:10135C00007CFFF70BF920EAE07008BD08B5007CB3
:10136C00FFF7FCF820EAE07008BD007CFFF716B927
:10137C0010B50446142100F064F9204610BD38B5B0
:10138C000446007C0D46FFF7F1F8002801DC607C78
:10139C0028B12946207CFFF7F9F820EAE07038BD27
:1013AC0010B50446002363604FF47A73A360054BB9
:1013BC00084623600123217463741146FFF7C6F8B5
:1013CC00204610BD3C1D080810B50446142200210F
:1013DC0000F09DFA054B20466360054BE36040F23C
:1013EC00011323818123238210BD00BF91020020B1
:1013FC001002002030B50E4D87B001A8FFF7E4FFB6
:10140C00296811F0010410D12846FEF744FE60B1A2
:10141C0001AA21460748FFF7C3FF2846FEF740FE06
:10142C00054A0649034800F007F9024807B030BDE9
:10143C000C02002094030020780000202D130808D3
:10144C0010B504461422002100F061FA054B204629
:10145C006360054BE36040F20113238181232382F7
:10146C0010BD00BF44040020AC03002010B50E4C8E
:10147C0086B001A8FFF7E4FF2368DB0710D42046F1
:10148C00FEF709FE60B101AA01210848FFF788FFA9
:10149C002046FEF705FE064A0649044800F0CCF843
:1014AC00024806B010BD00BFA80300203004002085
:1014BC00780000202D13080808B5184B33B1FFF73E
:1014CC0099FF03681B69984700281EDC144B33B145
:1014DC00FFF7FEFE03681B699847002818DC114BC8
:1014EC000BB1AFF30080104B0BB1AFF300800F4B7F
:1014FC000BB1AFF300800E4B7BB1FFF7B7FF036866
:10150C001B699847002806DC08BDAFF30080DDE7B7
:10151C00AFF30080E3E7AFF3008008BD00000000EC
:10152C0000000000000000000000000000000000AF
:10153C000000000008B5FFF7BFFFFEF7B7FF014B37
:10154C00186008BD500500200248034A0349121ACE
:10155C0000F0D2B90040024004400240001E0808CE
:10156C0007B5002300931A466FF07701FFF748F890
:10157C0003B05DF804FB000007B543880A2B08D0C4
:10158C00502B09D1094B1B683BB103B05DF804EB40
:10159C001847FFF7E5FF06E0002300931A466FF0AB
:1015AC007701FFF72DF803B05DF804FB4805002028
:1015BC0038B5104C104D2368AB42104B0CBF0122B8
:1015CC0000221A7002D0FFF7BFFF2560FEF766FFFE
:1015DC00044600F0A5F90A4B13B12046AFF3008086
:1015EC0000210748FFF74EF8BDE8384000210548B8
:1015FC00FEF7FCBF004002401E1C279A4C05002041
:10160C00000000008515080813B5084C00231A4685
:10161C00194600932046FFF785FC2046044A0549ED
:10162C0002B0BDE8104000F007B800BF5405002020
:10163C0078000020A90E08080B460146184600F059
:10164C004DB9FEF726BD08B5FFF78CF8244B1A6888
:10165C00D0075CBF01221A60224B1A68D1075CBF0D
:10166C0001221A60204B1A68D2075CBF01221A6053
:10167C001E4B1A68D0075CBF01221A601C4B1A68FB
:10168C00D1075CBF01221A601A4B1A68D2075CBFE3
:10169C0001221A60184B1A68D0075CBF01221A602D
:1016AC00164B1A68D1075CBF01221A60144B1A68DA
:1016BC00D2075CBF01221A60124B1A68D0075CBFBC
:1016CC0001221A60104B1A68D1075CBF01221A6004
:1016DC000E4B1A68D2075CBF01221A60704700BF1C
:1016EC008805002084050020800500207C05002052
:1016FC007805002074050020700500206C05002082
:10170C006805002064050020600500205C050020B1
:10171C00184B1A68D1075CBF01221A60164B1A6865
:10172C00D2075CBF01221A60144B1A68D0075CBF49
:10173C0001221A60124B1A68D1075CBF01221A6091
:10174C00104B1A68D2075CBF01221A600E4B1A6844
:10175C00D0075CBF01221A600C4B1A68D1075CBF22
:10176C0001221A600A4B1A68D2075CBF01221A6068
:10177C00704700BFA8050020A4050020A00500208C
:10178C009C05002098050020940500209005002061
:10179C008C050020184B1A68D1075CBF01221A6017
:1017AC00164B1A68D2075CBF01221A60144B1A68D8
:1017BC00D0075CBF01221A60124B1A68D1075CBFBC
:1017CC0001221A60104B1A68D2075CBF01221A6002
:1017DC000E4B1A68D0075CBF01221A600C4B1A68BA
:1017EC00D1075CBF01221A600A4B1A68D2075CBF92
:1017FC0001221A60704700BFC8050020C4050020F4
:10180C00C0050020BC050020B8050020B405002050
:10181C00B0050020AC050020244B1A68D0075CBF33
:10182C0001221A60224B1A68D1075CBF01221A6090
:10183C00204B1A68D2075CBF01221A601E4B1A6833
:10184C00D0075CBF01221A601C4B1A68D1075CBF21
:10185C0001221A601A4B1A68D2075CBF01221A6067
:10186C00184B1A68D0075CBF01221A60164B1A6815
:10187C00D1075CBF01221A60144B1A68D2075CBFF7
:10188C0001221A60124B1A68D0075CBF01221A6041
:10189C00104B1A68D1075CBF01221A600E4B1A68F4
:1018AC00D2075CBF01221A60704700BFF805002008
:1018BC00F4050020F0050020EC050020E8050020D0
:1018CC00E4050020E0050020DC050020D805002000
:1018DC00D4050020D0050020CC05002010B5054C07
:1018EC0013462CB10A4601460220AFF3008010BD0E
:1018FC00204610BD0000000010B5431E0A44914262
:10190C0004D011F8014B03F8014FF8E710BD034662
:10191C000244934202D003F8011BFAE7704700001F
:10192C0038B5124B05461C68A36BD3B91820FEF7CB
:10193C0001FF43F20E33A06303804AF6CD3343809C
:10194C0041F2342383804EF26D63C3804DF6EC6319
:10195C000381052343810B23838101220023C0E9EA
:10196C000423A36B00221D615A6138BD7400002052
:10197C0010F8012B11F8013B012A28BF9A42F7D02D
:10198C00D01A7047034611F8012B03F8012B002ADB
:10199C00F9D17047024B0146186800F003B800BF3C
:1019AC007400002070B5064608460C4600F00DF891
:1019BC00451C29463046FEF7DDFE064618B12A4680
:1019CC002146FFF799FF304670BD034613F8012BF3
:1019DC00002AFBD1181A0138704700001D000808B6
:1019EC005D000808890008088D0008080000000048
:1019FC00636172726965724D6F64650073657443DF
:101A0C006172726965724D6F64650041542B434F6E
:101A1C0050533D320D0A0041542B434F50533D302F
:101A2C000D0A0041542B434F50533D342C322C2281
:101A3C00333130343130220D0A0041542B434F5096
:101A4C00533D342C322C22333130323630220D0AB5
:101A5C000041542B434F50533D342C322C223633FF
:101A6C00353134220D0A0041542B434F50533D3431
:101A7C002C322C223633353130220D0A0041542BB6
:101A8C00434F50533D342C322C22363335313322D4
:101A9C000D0A0030004175746F6D61746963004309
:101AAC006C65617265642043617272696572205362
:101ABC00656C656374696F6E204D6F64650043617E
:101ACC00727269657220466F7263656420746F2050
:101ADC00415426540032004361727269657220468B
:101AEC006F7263656420746F20542D4D6F62696C46
:101AFC00650033004361727269657220466F7263D0
:101B0C00656420746F2041697274656C0034004DFB
:101B1C00544E004361727269657220466F72636540
:101B2C006420746F204D544E2F5277616E64614364
:101B3C00656C6C0035004361727269657220466F8A
:101B4C007263656420746F205449474F0000000095
:101B5C0000000000000000004F08080845080808B5
:101B6C003B080808B9070808C30008082F0808082C
:101B7C00230808081B0808081108080807080808A3
:101B8C00C3070808000000000000000089080808CE
:101B9C008F080808E50808089D0808088B0808083D
:101BAC000000000000000000B90E0808A90E08088B
:101BBC00AB0E0808626175640053657269616C0054
:101BCC0055534253657269616C31007479706500CC
:101BDC00706172616D00636D6400696400686E64AD
:101BEC00007374726D0066696C74006C766C0061C5
:101BFC00646448616E646C65720072656D6F7665C5
:101C0C0048616E646C657200656E756D48616E64DA
:101C1C006C657273004A534F4E53747265616D4C10
:101C2C006F6748616E646C6572006170700025307E
:101C3C0031307520005D20002564002C20002829FF
:101C4C003A2000205B00636F6465203D200025690D
:101C5C000064657461696C73203D200066006C6ED5
:101C6C0000666E00636F64650064657461696C0086
:101C7C006E6F6E6500747261636500696E666F00ED
:101C8C007761726E006572726F720070616E69635B
:101C9C0000616C6C000000000000000000000000FF
:101CAC00590F0808630F08086D0F0808770F08080C
:101CBC00810F08088D0F0808990F0808A50F080850
:101CCC00AD0F0808B70F0808C10F08085A00252BDC
:101CDC003033643A253032750025592D256D2D256C
:101CEC00645425483A254D3A2553257A006173638F
:101CFC0074696D6500000000000000000000000029
:101D0C002D1208087D1208088B12080821100808EB
:101D1C0041120808631208084F12080877120808C5
:101D2C002F12080833120808000000000000000001
:101D3C002D1308087D1308088B13080821100808B8
:101D4C00691308082F1308084513080877130808A7
:101D5C005B130808291308080000000000000000AD
:101D6C000000000000000000000000000000000067
:101D7C000000000000000000000000000000000057
:101D8C000000000000000000000000000000000047
:101D9C000000000000000000000000000000000037
:101DAC000000000000000000000000000000000027
:101DBC000000000000000000430000003D04080883
:101DCC0059080808490F08080D100808BD10080824
:101DDC00E5110808191208081516080859160808FC
:101DEC001D170808A117080825180808000000008E
:041DFC0000000000E3
:041E000000000000DE
:101E04004175746F6D617469630000000000000027
:101E1400F91C080800000000641D0808841D080857
:101E2400A41D0808000000000000000000000000DD
:101E340000000000C41D08080000000000000000AD
:101E4400000000000000000000000000000000008E
:101E5400000000000000000000000000000000007E
:101E6400000000000000000000000000000000006E
:081E7400000000001400002032
:101E7C00FFFFFFFF00000102030405060708090A23
:101E8C000B0C0D0E0F101112131415161718191A1E
:081E9C001B1C1D1E1F20280065
:041EA4007856341226
:040000050808001CCB
:00000001FF
