:02000002D0002C
:1040000000400D0090620D00000006000D0005014B
:084010000401E70500000000B7
:04401800E45C0D0057
:10401C0009480A49884208B505D0094A824202D0AB
:10402C00121A01F0E7FD0748074A0021121A01F0A5
:10403C00ECFD014808BD00BF30E30320E4610D0036
:10404C00B0E30320B0E30320F0E7032070B501F0E8
:10405C0019FC074C074BE41AA40800251E46A54280
:10406C0004D056F8253098470135F8E770BD00BFED
:10407C00E0610D00A8610D0000F0AAB908B500F0D0
:10408C001CF8BDE8084001F0BFBB00F0BBBB00F062
:10409C00C1BB00F0BFBB0078B0FA80F0400970479C
:1040AC0001230370704710B50446006808B100F096
:1040BC00B1FB204610BD00F049BA70472DE9D04342
:1040CC0000F030FB4FF4967440F2E73600270020E6
:1040DC0000F044FA4FF000098046002000F03EFA50
:1040EC00B0EB080061EB09018F4208BF864205D393
:1040FC0000F020FB10B900F00DFBEEE700F01AFB0E
:10410C0018B1BDE8D04300F015BB00F007FA034B23
:10411C00186000F0FFFA013CF3D0D8E744E7032025
:10412C0038B5046805467CB16368013B63605BB9D4
:10413C00236820469B689847A368013BA3601BB982
:10414C0023682046DB689847284638BD1FB54B4985
:10415C00044601F0FBF988B101F0D8FB484B002173
:10416C001878FFF7A8FF00F0E5FA00287DD0454B42
:10417C00454A1B788DF800303C236FE043492046BC
:10418C0001F0E4F988B101F0C1FB3D4B0121187835
:10419C00FFF791FF00F0CEFA002866D0394B3C4A6D
:1041AC001B788DF800303C2358E03A49204601F04A
:1041BC00CDF988B101F0AAFB314B02211878FFF739
:1041CC007AFF00F0B7FA00284FD02E4B324A1B78FA
:1041DC008DF800303C2341E03049204601F0B6F91F
:1041EC0088B101F093FB264B03211878FFF763FF8E
:1041FC0000F0A0FA002838D0224B294A1B788DF801
:10420C0000303C232AE02749204601F09FF980B179
:10421C0001F07CFB1A4B04211878FFF74CFF00F0DF
:10422C0089FA10B3174B204A1B788DF800303C23C9
:10423C0014E01E49204601F089F9E8B101F066FB53
:10424C000F4B05211878FFF736FF00F073FA60B1B9
:10425C000C4B174A1B788DF800303C2302A81549EB
:10426C0000F006FD03A8FFF75BFF4FF4FA6000F0C7
:10427C00F1FA01F082F9012004B010BDF85C0D00D8
:10428C0046E30320B4E30320FA5C0D00825F0D00CB
:10429C002A5D0D004D5D0D004F5D0D00765D0D002E
:1042AC00785D0D009D5D0D009F5D0D00CC5D0D00DA
:1042BC00CE5D0D00D25E0D000B46002142F2107255
:1042CC00084600F0EBB8000038B5304D00231A4614
:1042DC0019460446686800F065FA002202216868F5
:1042EC0000F050FA052C43D8DFE804F0030D172139
:1042FC002B352749274801F0C3FC27492348FFF7F2
:10430C00DBFF264930E02649224801F0B9FC22495E
:10431C001E48FFF7D1FF234926E023491D4801F031
:10432C00AFFC1D491948FFF7C7FF20491CE0204985
:10433C00184801F0A5FC18491448FFF7BDFF1D49AA
:10434C0012E01D49134801F09BFC13490F48FFF77D
:10435C00B3FF1A4908E01A490E4801F091FC0E49C6
:10436C000A48FFF7A9FF17490848FFF7A5FF38BD12
:10437C0001F0CCFA144B00211878FFF79CFE13497E
:10438C000448BDE8384001F07BBC00BFCCE30320FF
:10439C00F15D0D0030E30320FB5D0D00075E0D00A9
:1043AC00135E0D00185E0D002F5E0D00385E0D00C3
:1043BC004F5E0D00565E0D006C5E0D007B5E0D00B9
:1043CC00915E0D00965E0D0046E30320AC5E0D0081
:1043DC0008B5042200230E490E4800F08BF9002387
:1043EC0004220D490D4800F085F90D4A0D490E487F
:1043FC0000F01DFB01F08AFA0C4B187800F09EF8C7
:10440C000B4B1870FFF760FFBDE80840FFF756BE76
:10441C0030E30320B45E0D0040E30320C05E0D00CA
:10442C00C85E0D0059410D000F4A0D0046E30320F4
:10443C00C4E30320154B70B501261E7000F096F8EE
:10444C0001F04CFA00231A4642F6D51101F04EFA4F
:10445C0001F044FA00230E4C1A46252101F04EFAC5
:10446C0000254FF6FF73022063812560A580A5719E
:10447C00258100F003F90749074A204601F05AFA52
:10448C0029463046BDE8704000F008B9B4E303207B
:10449C00B8E30320B3400D00B0E3032008B5024B92
:1044AC001B689B6C019308BD7402030008B5024B9A
:1044BC001B689B68019308BD4802030008B5024BBA
:1044CC001B681B69019308BD4802030008B5024B29
:1044DC001B685B69019308BD4802030008B5024BD9
:1044EC001B685B6C019308BD4802030008B5024BC6
:1044FC001B689B6C019308BD4802030008B5024B76
:10450C001B689B6E019308BD3402030008B5024B77
:10451C001B685B68019308BD1802030008B5024BC9
:10452C001B685B69019308BD1802030008B5024BB8
:10453C001B689B6A019308BD1802030008B5024B67
:10454C001B68DB6A019308BD1802030008B5024B17
:10455C001B681B6B019308BD1802030008B5024BC6
:10456C001B68DB6D019308BD1802030008B5024BF4
:10457C001B681B68019308BD2C02030008B5024B95
:10458C001B685B69019308BD6402030008B5024B0C
:10459C001B689B68019308BD6802030008B5024BB9
:1045AC001B68DB68019308BD6802030008B5024B69
:1045BC001B681B68019308BD3C02030008B5024B45
:1045CC001B68DB68019308BD3C02030008B5024B75
:1045DC001B681B69019308BD3C02030008B5024B24
:1045EC001B685B69019308BD3C02030008B5024BD4
:1045FC001B689B69019308BD3C02030008B5024B84
:10460C001B68DB69019308BD3C02030008B5024B33
:10461C001B689B6A019308BD3C02030008B5024B62
:10462C001B681B68019308BD4C02030008B5024BC4
:10463C001B681B69019308BD4C02030008B5024BB3
:10464C001B685B69019308BD4C02030008B5024B63
:10465C001B689B69019308BD4C02030008B5024B13
:10466C001B68DB69019308BD4C02030008B5024BC3
:10467C001B681B6A019308BD4C02030008B5024B72
:10468C001B685B68019308BD2002030008B5024B50
:10469C001B685B69019308BD2002030008B5024B3F
:1046AC001B68DB6A019308BD2002030008B5024BAE
:1046BC001B68DB6C019308BD2002030008B5024B9C
:1046CC001B685B6D019308BD2002030008B5034B0A
:1046DC001B68D3F88830019308BD0000200203004A
:1046EC0008B5034B1B68D3F89430019308BD000048
:1046FC002002030008B5024B1B681B68019308BD20
:10470C004402030008B5024B1B685B68019308BDAB
:10471C004402030008B5024B1B689B68019308BD5B
:10472C004402030008B5024B1B68DB68019308BD0B
:10473C004402030008B5024B1B685B69019308BD7A
:10474C004402030008B5024B1B681B6A019308BDA9
:10475C004402030008B5024B1B68DB6B019308BDD8
:10476C004402030008B5024B1B685B68019308BD4B
:10477C004002030008B5024B1B689B68019308BDFF
:10478C004002030008B5024B1B68DB68019308BDAF
:10479C004002030008B5024B1B681B69019308BD5E
:1047AC004002030008B5024B1B685B69019308BD0E
:1047BC004002030008B5024B1B689B69019308BDBE
:1047CC004002030008B5024B1B68DB69019308BD6E
:1047DC004002030008B5024B1B681B6A019308BD1D
:1047EC004002030008B5024B1B681B6B019308BD0C
:1047FC004002030008B5024B1B685B6B019308BDBC
:10480C004002030008B5024B1B681B68019308BDEE
:10481C001C02030008B5024B1B685B68019308BDC2
:10482C001C02030008B5024B1B689B68019308BD72
:10483C001C02030008B5024B1B68DB6A019308BD20
:10484C001C02030008B5024B1B681B6B019308BDCF
:10485C001C0203000021FFF719BF10B58368044642
:10486C000BB901F06EF8C3689847A3681BB103221B
:10487C0021462046984720461021BDE8104001F003
:10488C005EB810B50446006808B1FFF72FFE20464D
:10489C0010BD0B68036013B15A6801325A6070473F
:1048AC0010B5064C002320462360FFF717FE204668
:1048BC00034A0449BDE8104001F03CB8C8E30320AA
:1048CC00B0E303208F480D00002211464068FFF72B
:1048DC0061BF002211464068FFF77CBF00221146E1
:1048EC004068FFF787BF00224068FFF77BBF0022BC
:1048FC0081F001014068FFF765BF00231A46194695
:10490C004068FFF757BF00231A4619464068FFF767
:10491C0049BF002211464068FFF72CBF002202213C
:10492C004068FFF72FBF00231A464068FFF71ABFF5
:10493C0038B5084C28252A460021204601F065F997
:10494C004FF0FF336360044B258004225A60034A06
:10495C001A6038BDD4E30320CCE30320E05E0D00E5
:10496C0070470020704710B51021044600F0E7FF97
:10497C00204610BD08B508B1FFF7F5FF08BD10B50E
:10498C008368044613B1032201469847204610BDA4
:10499C000022026010B54FF69C728280B1F904407F
:1049AC0084808A8002680C6804600A6010BD10B5AF
:1049BC0004460068FFF72EFF204610BD38B5C468CA
:1049CC00F4B12378022B03D104F10C00FFF7EFFFB5
:1049DC00656835B12846FFF7D2FF1021284600F054
:1049EC00AEFFA56835B12846FFF7C9FF1021284650
:1049FC0000F0A5FF20461421BDE8384000F09FBF11
:104A0C0038BD10B588B00446684600F072FD6946A2
:104A1C0004A800F090FD04A8A047044604A800F0E8
:104A2C0021FD684600F01EFD204608B010BDF0B513
:104A3C00102485B007460E461546002122466846CE
:104A4C0001F0E3F8002269461046ADF800400297E9
:104A5C0003960195FFF756FE05B0F0BD13B504465D
:104A6C0091E8050000234B600B602060626001A898
:104A7C0001930093FFF754FB204602B010BDF7B52D
:104A8C000C4602AD54F8043B45F8083D06460F466B
:104A9C0001A82146FFF7FDFE29463046FFF7DEFF51
:104AAC0001A8FFF73DFB2046FFF73AFB38460821EB
:104ABC0000F045FF304603B0F0BD13B50B4604467D
:104ACC0003C88DE8030093E8030084E803009DE825
:104ADC00030083E8030002B010BD000038B50023CA
:104AEC000446036010200D46FFF7CFFA28B10123CE
:104AFC0043608360024B0360C5602060204638BD74
:104B0C00145F0D00826810B50AB900F01AFFC36873
:104B1C00BDE81040184708B5006800F11001FFF718
:104B2C00F1FF08BD826810B50AB900F00AFFC3682E
:104B3C00BDE81040184708B5006800F11001FFF7F8
:104B4C00F1FF08BD38B5002383608B6804460D4621
:104B5C002BB102229847EB68E360AB68A360204658
:104B6C0038BD0000F0B589B004686846FFF710FF47
:104B7C0000238DF808304FF00202D4E84F3F002B91
:104B8C0003D1C4E8412F0029F7D102D08DF80830A9
:104B9C0063E014F10C0503D069462846FFF7F8FED4
:104BAC00BFF35F8F01236370002004F10803BFF390
:104BBC005F8F53E8006F43E80002002AF9D1BFF37E
:104BCC005F8F002E49D0FFF771FD20B1294630468A
:104BDC00FFF798FF3AE0314602A8FFF7B3FFE06811
:104BEC00B4F9105008B101F053F806901020ADF84C
:104BFC001C50FFF74AFA0546E8B1002787601820D9
:104C0C00FFF743FA044688B10146876002A8FFF714
:104C1C0054FF049BA268A360059B049206A9E2685A
:104C2C00E36004F110000592FFF7B2FE0D4BEB6050
:104C3C000D4B2C60AB6006A8FFF7B9FE02A8FFF77E
:104C4C009EFE002229460948FFF738FD3046FFF743
:104C5C0096FE1021304600F072FE6846FFF7A7FE64
:104C6C0009B0F0BD234B0D00994D0D0067480D00A8
:104C7C002DE9F04F8BB006460F46904699469DF8AD
:104C8C0050A0FFF757FD07AD834630BB4FF62E7390
:104C9C00059005A92846ADF81830FFF779FE1420C9
:104CAC00FFF7F3F9044658B1022303700123437054
:104CBC00C0F804B0C0F808B029460C30FFF768FE05
:104CCC003046214640F8044BFFF708FF2846FFF713
:104CDC006EFE05A8FFF76BFE52E000240C23142097
:104CEC006C60AC600793FFF7D0F9014618B1047003
:104CFC0044704460846004A80391FFF7EFFE224BDC
:104D0C0008930820FFF7C1F9044628B1039B40F82B
:104D1C00043B04A9FFF7BDFD00955FFA8AF34A46F0
:104D2C00414638460994FFF70DFD20B9039B5B788B
:104D3C0003F0FF0283B1039B059304A906A8FFF7B8
:104D4C00A8FD05A93046FFF789FE06A8FFF7E8F98C
:104D5C0004A8FFF7E5F913E04FF69C7305A903A827
:104D6C000592ADF81830FFF7FDFE05A8FFF71FFE02
:104D7C0005A80999FFF783FE06A8FFF7D1F9DAE732
:104D8C0030460BB0BDE8F08F094F0D00022AF8B584
:104D9C00044606D0032A17D0012A22D10B680360DF
:104DAC001FE018200E68FFF770F9054650B1314628
:104DBC00FFF7C8FE3069B6F9147008B100F068FF4F
:104DCC002861AF8225600CE0046854B104F1100036
:104DDC00FFF7EDFD2046FFF7D2FD1821204600F02D
:104DEC00AEFD0020F8BD38B5002383608B68044607
:104DFC000D462BB102229847EB68E360AB68A360C9
:104E0C00204638BD022A70B5044606D0032A11D0BC
:104E1C00012A18D10B68036015E014200E68FFF707
:104E2C0034F9054620B13146FFF7DDFF337C2B7496
:104E3C00256008E0046834B12046FFF7A0FD14217A
:104E4C00204600F07CFD002070BD0000F0B5002372
:104E5C0087B00C46BFF35F8F50E8006F40E800321C
:104E6C00002AF9D1BFF35F8F002E3FD01846FFF711
:104E7C001DFC074620B121463046FFF753FE2EE0BD
:104E8C00314601A8FFF7AFFF23788DF814301020BE
:104E9C00FFF7FBF80546D0B187601420FFF7F5F853
:104EAC00044678B18760014601A8FFF706FE039B14
:104EBC00A268A360049B0392E268E3609DF814303F
:104ECC00049223740A4BEB600A4B2C60AB6001A874
:104EDC00FFF755FD002229460748FFF7EFFB304648
:104EEC00FFF74DFD1021304600F029FD07B0F0BD55
:104EFC00434B0D00114E0D0067480D0030B585B0C9
:104F0C0004460D4668461146FFF7B9FD7CB124B244
:104F1C0028460DB100F0BCFE029002A96846ADF81F
:104F2C000C40FFF71FFE02A8FFF741FD1DE00098A3
:104F3C008DF808404FF00102D0E84F3FA34203D157
:104F4C00C0E8412F0029F7D102D08DF808300CE0D1
:104F5C0010F10C014FF0010318BF0373BFF35F8F07
:104F6C00043000F8033CFFF771FF01A8FFF7D8F8F5
:104F7C0005B030BD002211464068FFF72BBC002263
:104F8C0011464068FFF736BC00224068FFF72ABC88
:104F9C00002281F001014068FFF714BC00231A467F
:104FAC0019464068FFF706BC00231A4619464068AC
:104FBC00FFF7F8BB002211464068FFF7EBBB00225D
:104FCC0011464068FFF7D6BB002202214068FFF76C
:104FDC00D9BB00231A464068FFF7C4BB024B03221F
:104FEC005A60024A1A607047FCE30320305F0D00E0
:104FFC00704710B51821044600F0A1FC204610BDE6
:10500C00F0B5037D062B8DB00E4600F104074FF072
:10501C00000402D000F1080518E00CAD394605F883
:10502C00304D2F232A460A20FFF7A8FA284600F015
:10503C004AFE33680246DB682946304698470FE043
:10504C0024B12E21304600F0D5F9044415F8011D89
:10505C000A22304600F0D1F9BD420444F0D120467A
:10506C000DB0F0BD10B5054B0446112240F8043BC1
:10507C00002100F0CAFD204610BD00BF645F0D008A
:10508C000346074A10B543F8042B01F1100251F8FE
:10509C00044B43F8044B9142F9D10A781A7010BDB5
:1050AC00645F0D0010B59DF8084044EA032343EA01
:1050BC00024242EA016104234160037510BD37B519
:1050CC000D788B784A78C97800912946FFF7EAFF6A
:1050DC0003B030BD014B024A1A60704704E4032050
:1050EC00E35F0D00002211464068FFF773BB0022FE
:1050FC0011464068FFF77EBB00224068FFF772BB89
:10510C00002281F001014068FFF75CBB00231A46C6
:10511C0001214068FFF74EBB00231A461946406830
:10512C00FFF740BB002211464068FFF733BB00225B
:10513C0011464068FFF71EBB002202214068FFF7B2
:10514C0021BB00231A464068FFF70CBB38B5054657
:10515C0088B104684CB1A3681BB1032221462046D8
:10516C0098471021204600F0EAFB28461421BDE8A0
:10517C00384000F0E4BB38BD10B103685B681847D9
:10518C00704710B503680446BBB15868FFF78EF939
:10519C0078B923685A7C12B95868FFF78FF92368DD
:1051AC005868FFF793F920680023236028B1FFF7B4
:1051BC00CDFF206808B1FFF7C9FF204610BD38B5F8
:1051CC000446D0F8C40108B1FEF763FFD4F8C0015F
:1051DC0008B1FFF78BF9D4F8BC5135B12846FFF76D
:1051EC00D0FF0421284600F0AAFB206808B1FFF785
:1051FC00C3FF204638BD000010B5044B044640F8F0
:10520C00083BFFF7DCFF204610BD00BF58600D00C7
:10521C0038B50E4C0E4B23600025022304F5E470C8
:10522C006360A560C4F8C451C4F8C851FFF756F9BF
:10523C00084BC4F8CC5184F8D05123602046064A60
:10524C000649BDE8384000F075BB00BF08E40320F8
:10525C008C600D0058600D00B0E3032005520D006A
:10526C0000231A464068FFF77DBA002202214068ED
:10527C00FFF788BA002211464068FFF77BBA00227C
:10528C0011464068FFF786BA00231A461946406853
:10529C00FFF788BA00231A4619464068FFF78ABA06
:1052AC00002281F001014068FFF78CBA00224068AF
:1052BC00FFF798BA002211464068FFF79BBA00220C
:1052CC0011464068FFF786BA2DE9F043002495B0EB
:1052DC0016460D460746FFF7C5FE214620220CA8B0
:1052EC00009400F092FC40230C9321466B460CAAD0
:1052FC003046FFF753F90446002844D102460121F9
:10530C006868FFF747FA0221804622466868FFF773
:10531C0041FA009E81462146002E34D0002932D11C
:10532C007368022B02D00A2B09D02AE0B8F1000FC7
:10533C0027D0716938460431FFF7C1FE20E0B9F17E
:10534C00000F1ED07469112201A800F05EFC062328
:10535C008DF8143001AD04F108031834186859683D
:10536C002A4603C20833A3421546F7D101A906A861
:10537C0007ADFFF785FE0FCD3C1D0FC42B682370C6
:10538C000121F669C8E70098FFF700F9384615B017
:10539C00BDE8F083024B034A1A6000225A60704742
:1053AC00DCE503208C600D00F8B506460D468F1821
:1053BC000024BD420CD0336815F8011B9B683046A5
:1053CC009847002801DB0444F3E7002C08BF04468F
:1053DC002046F8BD70B505460C46084649B100F0AC
:1053EC0072FC2B68024621462846DB68BDE87040FB
:1053FC00184770BD03689B68184730B58BB00B46D7
:10540C0000218DF82410012A98BF0A220DF12304E3
:10541C00B3FBF2F505FB123303F0FF03092B94BF2A
:10542C0030333733DBB2214604F801392B46002DDB
:10543C00EED1FFF7CFFF0BB030BD10B50446FFF730
:10544C009EFA204610BD00000348044A044900237C
:10545C00836000F06FBA00BFE4E50320B0E30320E3
:10546C0047540D0010B504460068FFF7D3F92046E9
:10547C0010BD10B50446006808B1FFF7CBF9002346
:10548C002360A360636010BD38B504460D46006808
:10549C000131FFF7C7F910B184E82100012038BDB4
:1054AC0010B50368044613B143688B4207D22046FB
:1054BC00FFF7EAFF20B1A3680BB922681370012033
:1054CC0010BD70B50E46114604461546FFF7E8FFB1
:1054DC0018B92046FFF7CDFF09E02A463146A560F2
:1054EC00206800F087FB2268A3680021D154204675
:1054FC0070BD38B5002304460360436083600373BA
:10550C000D4639B1084600F0DEFB2946024620461E
:10551C00FFF7D7FF204638BD884210B50B4604462E
:10552C0007D0096819B19A68FFF7CBFF01E0FFF7C4
:10553C00A0FF204610BD10B5002304460360436055
:10554C0083600373FFF7E8FF204610BD08B582683F
:10555C000B4612B919B9012008BD11B903681878A6
:10556C0002E0006800F082FBB0FA80F0400908BD50
:10557C00014600228C20FEF7C1BF0020FFF7F8BFC8
:10558C0010B5094C00204FF6FF732060A080A0716D
:10559C0020816381FFF772F82046044A0449BDE874
:1055AC00104000F0C7B900BFF4E50320B0E30320BE
:1055BC00B3400D00024B1A68024B1A60704700BFD3
:1055CC0048E3032000E6032070474174704708B598
:1055DC00007CFFF71BF820EAE07008BD08B5007CE2
:1055EC00FEF7F4FF20EAE07008BD08B5007CFEF77A
:1055FC00FDFF30EA200028BF4FF0FF3008BD08B592
:10560C00007CFEF7EBFF30EA200028BF4FF0FF30A4
:10561C0008BD007CFEF7F2BF10B51421044600F063
:10562C008EF9204610BD70B5457C04460E4625B952
:10563C00007CFEF7EBFF002805DD3146207CBDE841
:10564C007040FEF7BBBF284670BD000010B5044685
:10565C0008461146002262604FF47A72A260054A35
:10566C0022600122207462741A46FEF79FFF2046C6
:10567C0010BD00BFEC600D0038B50C4D296811F061
:10568C00010411D12846FEF706FD68B1084A094B02
:10569C0009482146FFF7DAFF2846FEF701FD074AC5
:1056AC000749054800F046F9034838BD9CE603203D
:1056BC00A0E6032018E6032004E60320B0E3032051
:1056CC00D5550D0041747047704708B50021007C1A
:1056DC00FEF7BCFF30EA200028BF4FF0FF3008BDBA
:1056EC0008B50121007CFEF7B1FF30EA200028BF8D
:1056FC004FF0FF3008BD08B5007CFEF79FFF20EA95
:10570C00E07008BD08B5007CFEF790FF20EAE07061
:10571C0008BD007CFEF7AABF10B51421044600F0AA
:10572C000EF9204610BD38B50446007C0D46FEF738
:10573C0085FF002801DC607C28B12946207CFEF71F
:10574C008DFF20EAE07038BD10B50446002363607D
:10575C004FF47A73A360054B236001230846217430
:10576C0063741146FEF75AFF204610BD1C610D00F4
:10577C0010B514220446002100F047FA204610BD53
:10578C0030B50E4D87B001A8FFF7F2FF296811F074
:10579C00010410D12846FEF77EFC60B101AA214617
:1057AC000748FFF7D1FF2846FEF77AFC054A064961
:1057BC00034800F0BFF8024807B030BD24E70320CF
:1057CC0028E70320B0E30320D5560D0008B50C4B99
:1057DC0033B1FFF7D5FF03681B699847002809DC34
:1057EC00084B63B1FFF748FF03681B699847002813
:1057FC0003DC08BDAFF30080F2E7AFF3008008BD17
:10580C00000000000000000008B5FFF7DFFFFEF706
:10581C0085FE014B186008BD44E703200248034A8B
:10582C000349121A00F0E6B900F4032004F4032033
:10583C00E0610D0007B5002300931A466FF0770165
:10584C00FEF74EFF03B05DF804FB000007B543887C
:10585C000A2B08D0502B09D1094B1B683BB103B064
:10586C005DF804EB1847FFF7E5FF06E00023009313
:10587C001A466FF07701FEF733FF03B05DF804FBB7
:10588C003CE7032038B5104C104D2368AB42104B4D
:10589C000CBF012200221A7002D0FFF7BFFF256057
:1058AC00FEF734FE044600F0B9F90A4B13B120465A
:1058BC00AFF3008000210748FEF74CFF002106489B
:1058CC00BDE83840FEF702BF00F403201E1C279AE7
:1058DC0040E703200000000059580D0008B5024BAA
:1058EC001B681B68019308BD5C02030008B5024BE2
:1058FC001B685B68019308BD5C02030008B5024B92
:10590C001B689B68019308BD5C02030010B5074C33
:10591C002368DB0708D42046FEF7BDFB20B1FEF759
:10592C0005FE2046FEF7BCFB014810BD48E70320EE
:10593C004CE703200B460146184600F04DB9FEF724
:10594C00A6BB08B5FEF776FF244B1A68D0075CBFE0
:10595C0001221A60224B1A68D1075CBF01221A601F
:10596C00204B1A68D2075CBF01221A601E4B1A68C2
:10597C00D0075CBF01221A601C4B1A68D1075CBFB0
:10598C0001221A601A4B1A68D2075CBF01221A60F6
:10599C00184B1A68D0075CBF01221A60164B1A68A4
:1059AC00D1075CBF01221A60144B1A68D2075CBF86
:1059BC0001221A60124B1A68D0075CBF01221A60D0
:1059CC00104B1A68D1075CBF01221A600E4B1A6883
:1059DC00D2075CBF01221A60704700BF7CE703202E
:1059EC0078E7032074E7032070E703206CE70320BB
:1059FC0068E7032064E7032060E703205CE70320EB
:105A0C0058E7032054E7032050E70320184B1A688B
:105A1C00D1075CBF01221A60164B1A68D2075CBF13
:105A2C0001221A60144B1A68D0075CBF01221A605D
:105A3C00124B1A68D1075CBF01221A60104B1A680E
:105A4C00D2075CBF01221A600E4B1A68D0075CBFEC
:105A5C0001221A600C4B1A68D1075CBF01221A6034
:105A6C000A4B1A68D2075CBF01221A60704700BF4C
:105A7C009CE7032098E7032094E7032090E703209A
:105A8C008CE7032088E7032084E7032080E70320CA
:105A9C00184B1A68D1075CBF01221A60164B1A68A2
:105AAC00D2075CBF01221A60144B1A68D0075CBF86
:105ABC0001221A60124B1A68D1075CBF01221A60CE
:105ACC00104B1A68D2075CBF01221A600E4B1A6881
:105ADC00D0075CBF01221A600C4B1A68D1075CBF5F
:105AEC0001221A600A4B1A68D2075CBF01221A60A5
:105AFC00704700BFBCE70320B8E70320B4E70320DE
:105B0C00B0E70320ACE70320A8E70320A4E70320B9
:105B1C00A0E70320244B1A68D0075CBF01221A604F
:105B2C00224B1A68D1075CBF01221A60204B1A68FD
:105B3C00D2075CBF01221A601E4B1A68D0075CBFEB
:105B4C0001221A601C4B1A68D1075CBF01221A6033
:105B5C001A4B1A68D2075CBF01221A60184B1A68DC
:105B6C00D0075CBF01221A60164B1A68D1075CBFC4
:105B7C0001221A60144B1A68D2075CBF01221A600A
:105B8C00124B1A68D0075CBF01221A60104B1A68BE
:105B9C00D1075CBF01221A600E4B1A68D2075CBF9A
:105BAC0001221A60704700BFECE70320E8E70320EE
:105BBC00E4E70320E0E70320DCE70320D8E7032039
:105BCC00D4E70320D0E70320CCE70320C8E7032069
:105BDC00C4E70320C0E7032010B5054C13462CB1D5
:105BEC000A4601460220AFF3008010BD204610BDCE
:105BFC000000000010B5431E0A44914204D011F875
:105C0C00014B03F8014FF8E710BD024403469342E1
:105C1C0002D003F8011BFAE77047000038B5124BAD
:105C2C001C68A36B0546D3B91820FEF7EBFD43F2B5
:105C3C000E33A06303804AF6CD33438041F2342304
:105C4C0083804EF26D63C3804DF6EC6303810523B4
:105C5C0043810B23838101220023C0E90423A36B1E
:105C6C0000221D615A6138BDACE3032010F8012BF2
:105C7C0011F8013B012A28BF9A42F7D0D01A70477D
:105C8C00034611F8012B03F8012B002AF9D17047B8
:105C9C00024B0146186800F003B800BFACE30320C8
:105CAC0070B5064608460C4600F00DF8451C294612
:105CBC003046FEF7C7FD064618B12A462146FFF7C7
:105CCC0099FF304670BD034613F8012B002AFBD117
:105CDC00181A0138704700001D400D0059400D0086
:105CEC0085400D0089400D0000000000300043612C
:105CFC0072726965722053656C656374696F6E208E
:105D0C004D6F646520746F204175746F6D6174699B
:105D1C0063202D20526573657474696E670043614E
:105D2C00727269657220466F7263656420746F20AD
:105D3C0041542654202D20526573657474696E6726
:105D4C000032004361727269657220466F7263653E
:105D5C006420746F20542D4D6F62696C65202D206A
:105D6C00526573657474696E6700330043617272B7
:105D7C0069657220466F7263656420746F20416997
:105D8C007274656C202D20526573657474696E672E
:105D9C000034004361727269657220466F726365EC
:105DAC006420746F204D544E2F5277616E646143A2
:105DBC00656C6C202D20526573657474696E670078
:105DCC0035004361727269657220466F7263656457
:105DDC0020746F205449474F202D205265736574F1
:105DEC0074696E67004175746F6D6174696300410D
:105DFC00542B434F50533D320D0A0041542B434F0B
:105E0C0050533D300D0A00415426540041542B434D
:105E1C004F50533D342C322C22333130343130221C
:105E2C000D0A00542D4D6F62696C650041542B4373
:105E3C004F50533D342C322C2233313032363022F9
:105E4C000D0A0041697274656C0041542B434F502C
:105E5C00533D342C322C223633353134220D0A008A
:105E6C004D544E2F5277616E646163656C6C0041CA
:105E7C00542B434F50533D342C322C223633353176
:105E8C0030220D0A005449474F0041542B434F50C8
:105E9C00533D342C322C223633353133220D0A004B
:105EAC0044656661756C7400636172726965724DEC
:105EBC006F64650056657273696F6E007365744329
:105ECC006172726965724D6F6465000000000000BC
:105EDC000000000033490D0029490D001F490D0039
:105EEC00D5480D0013490D0007490D00FB480D0066
:105EFC00F3480D00E9480D00DF480D00D5520D00A8
:105F0C0000000000000000006D490D0073490D00F9
:105F1C00C9490D0081490D006F490D0000000000BA
:105F2C0000000000DF4F0D00D54F0D00CB4F0D00D2
:105F3C00C14F0D00B54F0D00A94F0D009D4F0D0029
:105F4C00954F0D008B4F0D00814F0D00D5520D005C
:105F5C0000000000000000000D500D00FD4F0D0072
:105F6C00FF4F0D00626175640053657269616C00CE
:105F7C0053657269616C310074797065007061727F
:105F8C00616D00636D6400696400686E6400737415
:105F9C00726D0066696C74006C766C0061646448A8
:105FAC00616E646C65720072656D6F766548616ECA
:105FBC00646C657200656E756D48616E646C6572BB
:105FCC0073004A534F4E53747265616D4C6F674842
:105FDC00616E646C657200617070002530313075D3
:105FEC0020005D20002564002C200028293A200088
:105FFC00205B00636F6465203D20002569006465AB
:10600C007461696C73203D200066006C6E00666ED6
:10601C0000636F64650064657461696C006E6F6E1B
:10602C006500747261636500696E666F00776172FA
:10603C006E006572726F720070616E696300616CE4
:10604C006C00000000000000000000004F510D002B
:10605C0045510D003B510D0031510D0025510D00E6
:10606C0019510D000D510D0005510D00FB500D0087
:10607C00F1500D00D5520D00000000000000000092
:10608C006D520D0077520D0081520D008B520D0098
:10609C0095520D00A1520D00AD520D00B9520D00DC
:1060AC00C1520D00CB520D00D5520D005A00252BBC
:1060BC003033643A253032750025592D256D2D2548
:1060CC00645425483A254D3A2553257A006173636B
:1060DC0074696D6500000000000000000000000005
:1060EC00D5550D0025560D0033560D00B5530D003A
:1060FC00E9550D000B560D00F7550D001F560D0000
:10610C00D7550D00DB550D0000000000000000000D
:10611C00D5560D0025570D0033570D00B5530D0006
:10612C0011570D00D7560D00ED560D001F570D00E1
:10613C0003570D00D1560D000000000000000000B8
:10614C000000000000000000000000000000000043
:10615C000000000000000000000000000000000033
:10616C000000000000000000000000000000000023
:10617C000000000000000000000000000000000013
:10618C000000000000000000000000000000000003
:10619C0000000000000000004300000041440D001E
:1061AC00AD480D003D490D00E94F0D00E1500D00CB
:1061BC001D520D00A1530D0055540D008D550D00B1
:1061CC00C1550D0055590D00195A0D009D5A0D0061
:0461DC00215B0D0036
:0461E00000000000BB
:1061E4004175746F6D617469630000000000000004
:1061F40033372E3032005500D9600D000000000006
:1062040044610D0064610D0084610D000000000014
:10621400000000000000000000000000A4610D0068
:10622400000000000000000000000000000000006A
:10623400000000000000000000000000000000005A
:10624400000000000000000000000000000000004A
:106254000000000000000000000000004CE30320E8
:10626400FFFFFFFFD52925000000010203040506F6
:106274000708090A0B0C0D0E0F1011121314151632
:0C6284001718191A1B1C1D1E1F202800D3
:0462900078563412F6
:04000003D000401CCD
:00000001FF
