:02000002D0002C
:1040000000400D00A0610D00000006000D0005013C
:084010000401E70500000000B7
:044018006C5C0D00CF
:10401C0009480A49884208B505D0094A824202D0AB
:10402C00121A01F0ABFD0748074A0021121A01F0E1
:10403C00B0FD014808BD00BF38E30320F4600D005B
:10404C00B8E30320B8E30320F0E7032070B501F0D8
:10405C00F1FB074C074BE41AA40800251E46A542A9
:10406C0004D056F8253098470135F8E770BD00BFED
:10407C00F0600D00B8600D0000F024B808B500F039
:10408C0045F8BDE8084001F097BB00F0A3BB00F079
:10409C00A9BB00F0A7BB0078B0FA80F040097047CC
:1040AC0001230370704710B50446006808B100F096
:1040BC0099FB204610BD00231A461946406800F0B3
:1040CC0059BB000008B500F00DFB00230422084981
:1040DC00084800F0EFFA002304220749074800F0D3
:1040EC00E9FA074A07490848BDE8084000F07FBCD8
:1040FC0038E30320805C0D0048E303208C5C0D004A
:10410C00945C0D00C9420D00CF490D0070470000B2
:10411C002DE9D0431848FFF7CEFF00F0E3FA4FF437
:10412C00967440F2E7360027002000F0FFF94FF0BC
:10413C0000098046002000F0F9F9B0EB080061EBB3
:10414C0009018F4208BF864205D300F0DBFA10B993
:10415C0000F0C0FAEEE700F0D5FA18B1BDE8D04394
:10416C0000F0D0BA00F0DAF9044B186000F0B2FAA3
:10417C00013CF3D0D8E700BFD4E303204CE7032085
:10418C0008B500F0BFFA80F00100C0B208BD000015
:10419C00F8B500F0AFFA002000F0C8F9002504468D
:1041AC0043F697260027002000F0C0F9001B61EBB6
:1041BC0005018F4208BF864205D3FFF7E1FF10B916
:1041CC0000F088FAEFE7FFF7DBFF044800231A46FC
:1041DC001946406800F0D6FA0120F8BDD4E303205C
:1041EC0038B5046805467CB16368013B63605BB914
:1041FC00236820469B689847A368013BA3601BB9C2
:10420C0023682046DB689847284638BD0B460021BA
:10421C0042F21072084600F049B9000010B51E4C6D
:10422C002046FFF748FF00220221606800F092FA56
:10423C001A4B1B682BB91A492046FFF7E7FF19499F
:10424C0026E0012B05D116492046FFF7DFFF164962
:10425C001EE0022B05D112492046FFF7D7FF134968
:10426C0016E0032B05D10E492046FFF7CFFF10496E
:10427C000EE0042B05D10A492046FFF7C7FF0D4974
:10428C0006E0052B07D106492046FFF7BFFF0A4978
:10429C002046FFF7BBFF10BDD4E30320CCE3032083
:1042AC00A35C0D00AF5C0D00BB5C0D00D25C0D007F
:1042BC00E95C0D00FF5C0D00155D0D001FB54B4951
:1042CC00044601F023F988B1494B4A494A48002277
:1042DC001A6001F099FC00F015FA00287DD0474BCC
:1042EC00474A1B788DF800303C236FE04549204647
:1042FC0001F00CF988B13E4B43493F4801221A604A
:10430C0001F082FC00F0FEF9002866D03B4B3F4ADE
:10431C001B788DF800303C2358E03D49204601F0D5
:10432C00F5F888B1324B3B49334802221A6001F050
:10433C006BFC00F0E7F900284FD0304B364A1B7865
:10434C008DF800303C2341E03449204601F0DEF882
:10435C0088B1274B3249284803221A6001F054FCDB
:10436C0000F0D0F9002838D0244B2E4A1B788DF859
:10437C0000303C232AE02C49204601F0C7F880B1DC
:10438C001B4B2A491C4804221A6001F03DFC00F02A
:10439C00B9F910B3194B264A1B788DF800303C2321
:1043AC0014E02449204601F0B1F8E8B1104B224941
:1043BC00114805221A6001F027FC00F0A3F960B146
:1043CC000E4B1E4A1B788DF800303C2302A81C496A
:1043DC0000F02EFC03A8FFF703FFFFF7D9FEFFF751
:1043EC001DFFFFF795FE012004B010BD2B5D0D00E5
:1043FC00CCE303202D5D0D0038E30320BCE3032048
:10440C00375D0D00925E0D00685D0D00565D0D0070
:10441C006D5D0D00815D0D006F5D0D008A5D0D0001
:10442C009E5D0D008C5D0D00A55D0D00A75D0D0062
:10443C00AB5D0D00CC5D0D00E05D0D00CE5D0D00A3
:10444C00515D0D00154B70B501261E7000F076F80D
:10445C0001F01CFA00231A4642F6D51101F01EFA9F
:10446C0001F014FA00230E4C1A46252101F01EFA15
:10447C0000254FF6FF73022063812560A580A5718E
:10448C00258100F0E3F80749074A204601F016FAA7
:10449C0029463046BDE8704000F0E0B8BCE303208C
:1044AC00C0E30320B3400D00B8E3032008B5024B72
:1044BC001B689B6C019308BD7402030008B5024B8A
:1044CC001B689B68019308BD4802030008B5024BAA
:1044DC001B681B69019308BD4802030008B5024B19
:1044EC001B685B69019308BD4802030008B5024BC9
:1044FC001B685B6C019308BD4802030008B5024BB6
:10450C001B689B6C019308BD4802030008B5024B65
:10451C001B685B68019308BD1802030008B5024BC9
:10452C001B685B69019308BD1802030008B5024BB8
:10453C001B68DB6D019308BD1802030008B5024B24
:10454C001B681B68019308BD2C02030008B5024BC5
:10455C001B685B69019308BD6402030008B5024B3C
:10456C001B689B68019308BD6802030008B5024BE9
:10457C001B68DB68019308BD6802030008B5024B99
:10458C001B681B68019308BD3C02030008B5024B75
:10459C001B68DB68019308BD3C02030008B5024BA5
:1045AC001B681B69019308BD3C02030008B5024B54
:1045BC001B685B69019308BD3C02030008B5024B04
:1045CC001B689B69019308BD3C02030008B5024BB4
:1045DC001B68DB69019308BD3C02030008B5024B64
:1045EC001B689B6A019308BD3C02030008B5024B93
:1045FC001B681B68019308BD4C02030008B5024BF5
:10460C001B681B69019308BD4C02030008B5024BE3
:10461C001B685B69019308BD4C02030008B5024B93
:10462C001B689B69019308BD4C02030008B5024B43
:10463C001B68DB69019308BD4C02030008B5024BF3
:10464C001B681B6A019308BD4C02030008B5024BA2
:10465C001B685B68019308BD2002030008B5024B80
:10466C001B68DB6A019308BD2002030008B5024BEE
:10467C001B68DB6C019308BD2002030008B5024BDC
:10468C001B685B6D019308BD2002030008B5034B4A
:10469C001B68D3F88830019308BD0000200203008A
:1046AC0008B5034B1B68D3F89430019308BD000088
:1046BC002002030008B5024B1B681B68019308BD60
:1046CC004402030008B5024B1B685B68019308BDEC
:1046DC004402030008B5024B1B689B68019308BD9C
:1046EC004402030008B5024B1B68DB68019308BD4C
:1046FC004402030008B5024B1B681B69019308BDFB
:10470C004402030008B5024B1B685B69019308BDAA
:10471C004402030008B5024B1B681B6A019308BDD9
:10472C004402030008B5024B1B68DB6B019308BD08
:10473C004402030008B5024B1B685B68019308BD7B
:10474C004002030008B5024B1B689B68019308BD2F
:10475C004002030008B5024B1B68DB68019308BDDF
:10476C004002030008B5024B1B681B69019308BD8E
:10477C004002030008B5024B1B685B69019308BD3E
:10478C004002030008B5024B1B689B69019308BDEE
:10479C004002030008B5024B1B68DB69019308BD9E
:1047AC004002030008B5024B1B681B6A019308BD4D
:1047BC004002030008B5024B1B681B6B019308BD3C
:1047CC004002030008B5024B1B685B6B019308BDEC
:1047DC004002030008B5024B1B681B68019308BD1F
:1047EC001C02030008B5024B1B685B68019308BDF3
:1047FC001C02030008B5024B1B689B68019308BDA3
:10480C001C02030008B5024B1B68DB6A019308BD50
:10481C001C02030008B5024B1B681B6B019308BDFF
:10482C001C02030010B5836804460BB901F04DF867
:10483C00C3689847A3681BB10322214620469847BA
:10484C0020461021BDE8104001F03DB810B50446DB
:10485C00006808B1FFF752FE204610BD0B680360DC
:10486C0013B15A6801325A607047000010B5064CFB
:10487C00002320462360FFF739FE2046034A0449F3
:10488C00BDE8104001F01AB8D0E30320B8E30320D0
:10489C0059480D00002211464068FFF763BF002203
:1048AC0011464068FFF77EBF002211464068FFF7B3
:1048BC0089BF00224068FFF77DBF002281F0010113
:1048CC004068FFF767BF00231A4619464068FFF798
:1048DC0059BF002211464068FFF734BF0022022165
:1048EC004068FFF737BF00231A464068FFF722BF26
:1048FC0038B5084C28252A460021204601F049F9F4
:10490C004FF0FF336360044B258004225A60034A46
:10491C001A6038BDDCE30320D4E30320F05D0D0006
:10492C0070470020704710B51021044600F0CBFFF3
:10493C00204610BD08B508B1FFF7F5FF08BD10B54E
:10494C008368044613B1032201469847204610BDE4
:10495C000022026010B54FF69C728280B1F90440BF
:10496C0084808A8002680C6804600A6010BD10B5EF
:10497C0004460068FFF736FF204610BD38B5C46802
:10498C00F4B12378022B03D104F10C00FFF7EFFFF5
:10499C00656835B12846FFF7D2FF1021284600F094
:1049AC0092FFA56835B12846FFF7C9FF10212846AC
:1049BC0000F089FF20461421BDE8384000F083BF89
:1049CC0038BD10B588B00446684600F072FD6946E3
:1049DC0004A800F090FD04A8A047044604A800F029
:1049EC0021FD684600F01EFD204608B010BDF0B554
:1049FC00102485B007460E4615460021224668460F
:104A0C0001F0C7F8002269461046ADF80040029745
:104A1C0003960195FFF756FE05B0F0BD13B504469D
:104A2C0091E8050000234B600B602060626001A8D8
:104A3C0001930093FFF7D4FB204602B010BDF7B5ED
:104A4C000C4602AD54F8043B45F8083D06460F46AB
:104A5C0001A82146FFF702FF29463046FFF7DEFF8B
:104A6C0001A8FFF7BDFB2046FFF7BAFB384608212B
:104A7C0000F029FF304603B0F0BD13B50B460446D9
:104A8C0003C88DE8030093E8030084E803009DE865
:104A9C00030083E8030002B010BD000038B500230A
:104AAC000446036010200D46FFF7EFFA28B10123EE
:104ABC0043608360024B0360C5602060204638BDB4
:104ACC00245E0D00826810B50AB900F0FEFEC368C2
:104ADC00BDE81040184708B5006800F11001FFF759
:104AEC00F1FF08BD826810B50AB900F0EEFEC3688C
:104AFC00BDE81040184708B5006800F11001FFF739
:104B0C00F1FF08BD38B5002383608B6804460D4661
:104B1C002BB102229847EB68E360AB68A360204698
:104B2C0038BD0000F0B589B004686846FFF710FF87
:104B3C0000238DF808304FF00202D4E84F3F002BD1
:104B4C0003D1C4E8412F0029F7D102D08DF80830E9
:104B5C0063E014F10C0503D069462846FFF7F8FE14
:104B6C00BFF35F8F01236370002004F10803BFF3D0
:104B7C005F8F53E8006F43E80002002AF9D1BFF3BE
:104B8C005F8F002E49D0FFF771FD20B129463046CA
:104B9C00FFF798FF3AE0314602A8FFF7B3FFE06851
:104BAC00B4F9105008B101F037F806901020ADF8A8
:104BBC001C50FFF76AFA0546E8B1002787601820F9
:104BCC00FFF763FA044688B10146876002A8FFF735
:104BDC0054FF049BA268A360059B049206A9E2689B
:104BEC00E36004F110000592FFF7B2FE0D4BEB6091
:104BFC000D4B2C60AB6006A8FFF7B9FE02A8FFF7BF
:104C0C009EFE002229460948FFF738FD3046FFF783
:104C1C0096FE1021304600F056FE6846FFF7A7FEC0
:104C2C0009B0F0BDE34A0D00594D0D0031480D009F
:104C3C002DE9F04F8BB006460F46904699469DF8ED
:104C4C0050A0FFF75FFD07AD834630BB4FF62E73C8
:104C5C00059005A92846ADF81830FFF779FE142009
:104C6C00FFF713FA044658B1022303700123437073
:104C7C00C0F804B0C0F808B029460C30FFF768FE45
:104C8C003046214640F8044BFFF708FF2846FFF753
:104C9C006EFE05A8FFF76BFE52E000240C231420D7
:104CAC006C60AC600793FFF7F0F9014618B1047023
:104CBC0044704460846004A80391FFF7EFFE224B1C
:104CCC0008930820FFF7E1F9044628B1039B40F84C
:104CDC00043B04A9FFF7C2FD00955FFA8AF34A462C
:104CEC00414638460994FFF715FD20B9039B5B78C4
:104CFC0003F0FF0283B1039B059304A906A8FFF7F9
:104D0C00ADFD05A93046FFF789FE06A8FFF768FA46
:104D1C0004A8FFF765FA13E04FF69C7305A903A8E6
:104D2C000592ADF81830FFF7FDFE05A8FFF71FFE42
:104D3C0005A80999FFF783FE06A8FFF751FADAE7F1
:104D4C0030460BB0BDE8F08FC94E0D00022AF8B505
:104D5C00044606D0032A17D0012A22D10B6803601F
:104D6C001FE018200E68FFF790F9054650B1314648
:104D7C00FFF7C8FE3069B6F9147008B100F04CFFAB
:104D8C002861AF8225600CE0046854B104F1100076
:104D9C00FFF7EDFD2046FFF7D2FD1821204600F06D
:104DAC0092FD0020F8BD38B5002383608B68044663
:104DBC000D462BB102229847EB68E360AB68A36009
:104DCC00204638BD022A70B5044606D0032A11D0FD
:104DDC00012A18D10B68036015E014200E68FFF748
:104DEC0054F9054620B13146FFF7DDFF337C2B74B7
:104DFC00256008E0046834B12046FFF7A0FD1421BB
:104E0C00204600F060FD002070BD0000F0B50023CE
:104E1C0087B00C46BFF35F8F50E8006F40E800325C
:104E2C00002AF9D1BFF35F8F002E3FD01846FFF751
:104E3C001DFC074620B121463046FFF753FE2EE0FD
:104E4C00314601A8FFF7AFFF23788DF814301020FE
:104E5C00FFF71BF90546D0B187601420FFF715F951
:104E6C00044678B18760014601A8FFF706FE039B54
:104E7C00A268A360049B0392E268E3609DF814307F
:104E8C00049223740A4BEB600A4B2C60AB6001A8B4
:104E9C00FFF755FD002229460748FFF7EFFB304688
:104EAC00FFF74DFD1021304600F00DFD07B0F0BDB1
:104EBC00034B0D00D14D0D0031480D0030B585B0C0
:104ECC0004460D4668461146FFF7B9FD7CB124B285
:104EDC0028460DB100F0A0FE029002A96846ADF87C
:104EEC000C40FFF71FFE02A8FFF741FD1DE00098E4
:104EFC008DF808404FF00102D0E84F3FA34203D198
:104F0C00C0E8412F0029F7D102D08DF808300CE011
:104F1C0010F10C014FF0010318BF0373BFF35F8F47
:104F2C00043000F8033CFFF771FF01A8FFF758F9B4
:104F3C0005B030BD002211464068FFF733BC00229B
:104F4C0011464068FFF73EBC00224068FFF732BCB8
:104F5C00002281F001014068FFF71CBC00231A46B7
:104F6C0019464068FFF70EBC00231A4619464068E4
:104F7C00FFF700BC002211464068FFF7F3BB00228C
:104F8C0011464068FFF7DEBB002202214068FFF7A4
:104F9C00E1BB00231A464068FFF7CCBB024B03224F
:104FAC005A60024A1A60704704E40320405E0D0008
:104FBC00704710B51821044600F085FC204610BD42
:104FCC00F0B5037D062B8DB00E4600F104074FF0B3
:104FDC00000402D000F1080518E00CAD394605F8C4
:104FEC00304D2F232A460A20FFF7B0FA284600F04E
:104FFC002EFE33680246DB682946304698470FE0A0
:10500C0024B12E21304600F0D5F9044415F8011DC9
:10501C000A22304600F0D1F9BD420444F0D12046BA
:10502C000DB0F0BD10B5054B0446112240F8043B01
:10503C00002100F0AEFD204610BD00BF745E0D00D7
:10504C000346074A10B543F8042B01F1100251F83E
:10505C00044B43F8044B9142F9D10A781A7010BDF5
:10506C00745E0D0010B59DF8084044EA032343EA32
:10507C00024242EA016104234160037510BD37B559
:10508C000D788B784A78C97800912946FFF7EAFFAA
:10509C0003B030BD014B024A1A6070470CE4032088
:1050AC00F35E0D00002211464068FFF77BBB002227
:1050BC0011464068FFF786BB00224068FFF77ABBB9
:1050CC00002281F001014068FFF764BB00231A46FF
:1050DC0001214068FFF756BB00231A461946406869
:1050EC00FFF748BB002211464068FFF73BBB00228C
:1050FC0011464068FFF726BB002202214068FFF7EB
:10510C0029BB00231A464068FFF714BB38B5054687
:10511C0088B104684CB1A3681BB103222146204618
:10512C0098471021204600F0CEFB28461421BDE8FC
:10513C00384000F0C8BB38BD10B103685B68184735
:10514C00704710B503680446BBB15868FFF7B6F951
:10515C0078B923685A7C12B95868FFF7B7F92368F5
:10516C005868FFF7BBF920680023236028B1FFF7CC
:10517C00CDFF206808B1FFF7C9FF204610BD38B538
:10518C000446D0F8C40108B1FEF783FFD4F8C0017F
:10519C0008B1FFF7B3F9D4F8BC5135B12846FFF785
:1051AC00D0FF0421284600F08EFB206808B1FFF7E1
:1051BC00C3FF204638BD000010B5044B044640F830
:1051CC00083BFFF7DCFF204610BD00BF685F0D00F9
:1051DC0038B50E4C0E4B23600025022304F5E47009
:1051EC006360A560C4F8C451C4F8C851FFF77EF9D8
:1051FC00084BC4F8CC5184F8D05123602046064AA1
:10520C000649BDE8384000F059BB00BF10E403204C
:10521C009C5F0D00685F0D00B8E30320C5510D00C5
:10522C0000231A464068FFF785BA00220221406825
:10523C00FFF790BA002211464068FFF783BA0022AC
:10524C0011464068FFF78EBA00231A46194640688B
:10525C00FFF790BA00231A4619464068FFF792BA36
:10526C00002281F001014068FFF794BA00224068E7
:10527C00FFF7A0BA002211464068FFF7A3BA00223C
:10528C0011464068FFF78EBA2DE9F043002495B023
:10529C0016460D460746FFF7C5FE214620220CA8F0
:1052AC00009400F076FC40230C9321466B460CAA2C
:1052BC003046FFF75BF90446002844D10246012131
:1052CC006868FFF74FFA0221804622466868FFF7AC
:1052DC0049FA009E81462146002E34D0002932D155
:1052EC007368022B02D00A2B09D02AE0B8F1000F08
:1052FC0027D0716938460431FFF7C1FE20E0B9F1BF
:10530C00000F1ED07469112201A800F042FC062384
:10531C008DF8143001AD04F108031834186859687D
:10532C002A4603C20833A3421546F7D101A906A8A1
:10533C0007ADFFF785FE0FCD3C1D0FC42B68237006
:10534C000121F669C8E70098FFF708F9384615B04F
:10535C00BDE8F083024B034A1A6000225A60704782
:10536C00E4E503209C5F0D00F8B506460D468F184A
:10537C000024BD420CD0336815F8011B9B683046E5
:10538C009847002801DB0444F3E7002C08BF0446CF
:10539C002046F8BD70B505460C46084649B100F0EC
:1053AC0056FC2B68024621462846DB68BDE8704057
:1053BC00184770BD03689B68184730B58BB00B4617
:1053CC0000218DF82410012A98BF0A220DF1230424
:1053DC00B3FBF2F505FB123303F0FF03092B94BF6B
:1053EC0030333733DBB2214604F801392B46002D1C
:1053FC00EED1FFF7CFFF0BB030BD10B50446FFF771
:10540C009EFA204610BD00000348044A04490023BC
:10541C00836000F053BA00BFECE50320B8E303202F
:10542C0007540D0010B504460068FFF7DBF9204661
:10543C0010BD10B50446006808B1FFF7D3F900237E
:10544C002360A360636010BD38B504460D46006848
:10545C000131FFF7CFF910B184E82100012038BDEC
:10546C0010B50368044613B143688B4207D220463B
:10547C00FFF7EAFF20B1A3680BB922681370012073
:10548C0010BD70B50E46114604461546FFF7E8FFF1
:10549C0018B92046FFF7CDFF09E02A463146A56032
:1054AC00206800F06BFB2268A3680021D1542046D1
:1054BC0070BD38B5002304460360436083600373FA
:1054CC000D4639B1084600F0C2FB2946024620467B
:1054DC00FFF7D7FF204638BD884210B50B4604466F
:1054EC0007D0096819B19A68FFF7CBFF01E0FFF705
:1054FC00A0FF204610BD10B5002304460360436096
:10550C0083600373FFF7E8FF204610BD08B582687F
:10551C000B4612B919B9012008BD11B903681878E6
:10552C0002E0006800F066FBB0FA80F0400908BDAC
:10553C0010B5094C00204FF6FF732060A080A071BD
:10554C0020816381FFF782F82046044A0449BDE8B4
:10555C00104000F0B3B900BFFCE50320B8E3032012
:10556C00B3400D00024B1A68024B1A60704700BF23
:10557C0050E3032008E6032070474174704708B5D8
:10558C00007CFFF72BF820EAE07008BD08B5007C22
:10559C00FFF704F820EAE07008BD08B5007CFFF7BF
:1055AC000DF830EA200028BF4FF0FF3008BD08B5D9
:1055BC00007CFEF7FBFF30EA200028BF4FF0FF30E5
:1055CC0008BD007CFFF702B810B51421044600F0AA
:1055DC007AF9204610BD70B5457C04460E4625B9B7
:1055EC00007CFEF7FBFF002805DD3146207CBDE882
:1055FC007040FEF7CBBF284670BD000010B50446C6
:10560C0008461146002262604FF47A72A260054A85
:10561C0022600122207462741A46FEF7AFFF204606
:10562C0010BD00BFFC5F0D0038B50C4D296811F0A2
:10563C00010411D12846FEF72EFD68B1084A094B2A
:10564C0009482146FFF7DAFF2846FEF729FD074AED
:10565C000749054800F032F9034838BDA4E6032099
:10566C00A8E6032020E603200CE60320B8E3032081
:10567C0085550D0041747047704708B50021007CBA
:10568C00FEF7CCFF30EA200028BF4FF0FF3008BDFA
:10569C0008B50121007CFEF7C1FF30EA200028BFCD
:1056AC004FF0FF3008BD08B5007CFEF7AFFF20EAD5
:1056BC00E07008BD08B5007CFEF7A0FF20EAE070A2
:1056CC0008BD007CFEF7BABF10B51421044600F0EB
:1056DC00FAF8204610BD38B50446007C0D46FEF79E
:1056EC0095FF002801DC607C28B12946207CFEF760
:1056FC009DFF20EAE07038BD10B5044600236360BE
:10570C004FF47A73A360054B236001230846217480
:10571C0063741146FEF76AFF204610BD2C600D0025
:10572C0010B514220446002100F033FA204610BDB7
:10573C0030B50E4D87B001A8FFF7F2FF296811F0C4
:10574C00010410D12846FEF7A6FC60B101AA21463F
:10575C000748FFF7D1FF2846FEF7A2FC054A064989
:10576C00034800F0ABF8024807B030BD2CE703202B
:10577C0030E70320B8E3032085560D0008B50C4B29
:10578C0033B1FFF7D5FF03681B699847002809DC84
:10579C00084B63B1FFF748FF03681B699847002863
:1057AC0003DC08BDAFF30080F2E7AFF3008008BD67
:1057BC00000000000000000008B5FFF7DFFFFEF757
:1057CC00ADFE014B186008BD4CE703200248034AAC
:1057DC000349121A00F0D2B900F4032004F4032098
:1057EC00F0600D0007B5002300931A466FF07701A7
:1057FC00FEF756FF03B05DF804FB000007B54388C5
:10580C000A2B08D0502B09D1094B1B683BB103B0B4
:10581C005DF804EB1847FFF7E5FF06E00023009363
:10582C001A466FF07701FEF73BFF03B05DF804FBFF
:10583C0044E7032038B5104C104D2368AB42104B95
:10584C000CBF012200221A7002D0FFF7BFFF2560A7
:10585C00FEF75CFE044600F0A5F90A4B13B1204696
:10586C00AFF3008000210748FEF75CFF00210648DB
:10587C00BDE83840FEF70ABF00F403201E1C279A2F
:10588C0048E703200000000009580D0008B5024B42
:10589C001B681B68019308BD5C02030008B5024B32
:1058AC001B685B68019308BD5C02030008B5024BE2
:1058BC001B689B68019308BD5C0203000B46014604
:1058CC00184600F04DB9FEF7E2BB08B5FEF79AFF9B
:1058DC00244B1A68D0075CBF01221A60224B1A684D
:1058EC00D1075CBF01221A60204B1A68D2075CBF3B
:1058FC0001221A601E4B1A68D0075CBF01221A6085
:10590C001C4B1A68D1075CBF01221A601A4B1A682B
:10591C00D2075CBF01221A60184B1A68D0075CBF13
:10592C0001221A60164B1A68D1075CBF01221A605B
:10593C00144B1A68D2075CBF01221A60124B1A680A
:10594C00D0075CBF01221A60104B1A68D1075CBFEC
:10595C0001221A600E4B1A68D2075CBF01221A6032
:10596C00704700BF7CE7032078E7032074E703202F
:10597C0070E703206CE7032068E7032064E703204B
:10598C0060E703205CE7032058E7032054E703207B
:10599C0050E70320184B1A68D1075CBF01221A602C
:1059AC00164B1A68D2075CBF01221A60144B1A6896
:1059BC00D0075CBF01221A60124B1A68D1075CBF7A
:1059CC0001221A60104B1A68D2075CBF01221A60C0
:1059DC000E4B1A68D0075CBF01221A600C4B1A6878
:1059EC00D1075CBF01221A600A4B1A68D2075CBF50
:1059FC0001221A60704700BF9CE7032098E7032040
:105A0C0094E7032090E703208CE7032088E703202A
:105A1C0084E7032080E70320184B1A68D1075CBF8A
:105A2C0001221A60164B1A68D2075CBF01221A6059
:105A3C00144B1A68D0075CBF01221A60124B1A680B
:105A4C00D1075CBF01221A60104B1A68D2075CBFE9
:105A5C0001221A600E4B1A68D0075CBF01221A6033
:105A6C000C4B1A68D1075CBF01221A600A4B1A68EA
:105A7C00D2075CBF01221A60704700BFBCE703204D
:105A8C00B8E70320B4E70320B0E70320ACE703201A
:105A9C00A8E70320A4E70320A0E70320244B1A68FF
:105AAC00D0075CBF01221A60224B1A68D1075CBF79
:105ABC0001221A60204B1A68D2075CBF01221A60BF
:105ACC001E4B1A68D0075CBF01221A601C4B1A6867
:105ADC00D1075CBF01221A601A4B1A68D2075CBF4F
:105AEC0001221A60184B1A68D0075CBF01221A6099
:105AFC00164B1A68D1075CBF01221A60144B1A6846
:105B0C00D2075CBF01221A60124B1A68D0075CBF27
:105B1C0001221A60104B1A68D1075CBF01221A606F
:105B2C000E4B1A68D2075CBF01221A60704700BF87
:105B3C00ECE70320E8E70320E4E70320E0E7032099
:105B4C00DCE70320D8E70320D4E70320D0E70320C9
:105B5C00CCE70320C8E70320C4E70320C0E70320F9
:105B6C0010B5054C13462CB10A4601460220AFF382
:105B7C00008010BD204610BD0000000010B5431E73
:105B8C000A44914204D011F8014B03F8014FF8E795
:105B9C0010BD02440346934202D003F8011BFAE7FE
:105BAC007047000038B5124B1C68A36B0546D3B97F
:105BBC001820FEF70FFE43F20E33A06303804AF663
:105BCC00CD33438041F2342383804EF26D63C38026
:105BDC004DF6EC630381052343810B238381012262
:105BEC000023C0E90423A36B00221D615A6138BD58
:105BFC00B4E3032010F8012B11F8013B012A28BF54
:105C0C009A42F7D0D01A7047034611F8012B03F8CB
:105C1C00012B002AF9D17047024B0146186800F09D
:105C2C0003B800BFB4E3032070B5064608460C4623
:105C3C0000F00DF8451C29463046FEF7EBFD0646F4
:105C4C0018B12A462146FFF799FF304670BD03462E
:105C5C0013F8012B002AFBD1181A013870470000E9
:105C6C001D400D0059400D0085400D0089400D0070
:105C7C0000000000636172726965724D6F646500AB
:105C8C0056657273696F6E007365744361727269E5
:105C9C0065724D6F64650041542B434F50533D3238
:105CAC000D0A0041542B434F50533D300D0A004117
:105CBC00542B434F50533D342C322C22333130343F
:105CCC003130220D0A0041542B434F50533D342C9C
:105CDC00322C22333130323630220D0A0041542B13
:105CEC00434F50533D342C322C2236333531342231
:105CFC000D0A0041542B434F50533D342C322C226F
:105D0C003633353130220D0A0041542B434F50535A
:105D1C003D342C322C223633353133220D0A0030EF
:105D2C00004175746F6D6174696300436C656172D9
:105D3C00656420436172726965722053656C65639A
:105D4C0074696F6E204D6F64650043617272696592
:105D5C007220466F7263656420746F204154265420
:105D6C000032004361727269657220466F7263651E
:105D7C006420746F20542D4D6F62696C6500330084
:105D8C004361727269657220466F72636564207438
:105D9C006F2041697274656C0034004D544E0043A1
:105DAC0061727269657220466F7263656420746FEC
:105DBC00204D544E2F5277616E646143656C6C00BC
:105DCC0035004361727269657220466F7263656457
:105DDC0020746F205449474F000000000000000061
:105DEC0000000000F3480D00E9480D00DF480D00ED
:105DFC00A1480D00C3400D00D3480D00C7480D004D
:105E0C00BF480D00B5480D00AB480D0095520D0074
:105E1C0000000000000000002D490D0033490D006A
:105E2C0089490D0041490D002F490D00000000006B
:105E3C00000000009F4F0D00954F0D008B4F0D0083
:105E4C00814F0D00754F0D00694F0D005D4F0D001A
:105E5C00554F0D004B4F0D00414F0D0095520D004D
:105E6C000000000000000000CD4F0D00BD4F0D00E4
:105E7C00BF4F0D00626175640053657269616C00FF
:105E8C0053657269616C3100747970650070617270
:105E9C00616D00636D6400696400686E6400737406
:105EAC00726D0066696C74006C766C006164644899
:105EBC00616E646C65720072656D6F766548616EBB
:105ECC00646C657200656E756D48616E646C6572AC
:105EDC0073004A534F4E53747265616D4C6F674833
:105EEC00616E646C657200617070002530313075C4
:105EFC0020005D20002564002C200028293A200079
:105F0C00205B00636F6465203D200025690064659B
:105F1C007461696C73203D200066006C6E00666EC7
:105F2C0000636F64650064657461696C006E6F6E0C
:105F3C006500747261636500696E666F00776172EB
:105F4C006E006572726F720070616E696300616CD5
:105F5C006C00000000000000000000000F510D005C
:105F6C0005510D00FB500D00F1500D00E5500D00DA
:105F7C00D9500D00CD500D00C5500D00BB500D007B
:105F8C00B1500D0095520D00000000000000000003
:105F9C002D520D0037520D0041520D004B520D0089
:105FAC0055520D0061520D006D520D0079520D00CD
:105FBC0081520D008B520D0095520D005A00252B6D
:105FCC003033643A253032750025592D256D2D2539
:105FDC00645425483A254D3A2553257A006173635C
:105FEC0074696D65000000000000000000000000F6
:105FFC0085550D00D5550D00E3550D0075530D005D
:10600C0099550D00BB550D00A7550D00CF550D0032
:10601C0087550D008B550D0000000000000000009E
:10602C0085560D00D5560D00E3560D0075530D0029
:10603C00C1560D0087560D009D560D00CF560D0014
:10604C00B3560D0081560D0000000000000000004A
:10605C000000000000000000000000000000000034
:10606C000000000000000000000000000000000024
:10607C000000000000000000000000000000000014
:10608C000000000000000000000000000000000004
:10609C0000000000000000000000000000000000F4
:1060AC0000000000000000004300000051440D00FF
:1060BC0079480D00FD480D00A94F0D00A1500D00B1
:1060CC00DD510D0061530D0015540D003D550D00B3
:1060DC0071550D00DD580D00A1590D00255A0D000C
:0460EC00A95A0D00A0
:0460F00000000000AC
:1060F4004175746F6D6174696300000000000000F5
:1061040033372E3032000000E95F0D00000000003C
:1061140054600D0074600D0094600D0000000000D8
:10612400000000000000000000000000B4600D004A
:10613400000000000000000000000000000000005B
:10614400000000000000000000000000000000004B
:10615400000000000000000000000000000000003B
:1061640000000000000000000000000054E30320D1
:10617400FFFFFFFFD52925000000010203040506E7
:106184000708090A0B0C0D0E0F1011121314151623
:0C6194001718191A1B1C1D1E1F202800C4
:0461A00078563412E7
:04000003D000401CCD
:00000001FF
